{
  "_format": "hh-sol-artifact-1",
  "contractName": "Staking",
  "sourceName": "contracts/Staking.sol",
  "abi": [
    {
      "inputs": [],
      "stateMutability": "payable",
      "type": "constructor"
    },
    {
      "inputs": [
        {
          "internalType": "uint256",
          "name": "positionId",
          "type": "uint256"
        },
        {
          "internalType": "uint256",
          "name": "newUnlockDate",
          "type": "uint256"
        }
      ],
      "name": "changeUnlockDate",
      "outputs": [],
      "stateMutability": "nonpayable",
      "type": "function"
    },
    {
      "inputs": [
        {
          "internalType": "uint256",
          "name": "positionId",
          "type": "uint256"
        }
      ],
      "name": "closePosition",
      "outputs": [],
      "stateMutability": "nonpayable",
      "type": "function"
    },
    {
      "inputs": [],
      "name": "currentPositionId",
      "outputs": [
        {
          "internalType": "uint256",
          "name": "",
          "type": "uint256"
        }
      ],
      "stateMutability": "view",
      "type": "function"
    },
    {
      "inputs": [
        {
          "internalType": "uint256",
          "name": "numDays",
          "type": "uint256"
        }
      ],
      "name": "getInterestRate",
      "outputs": [
        {
          "internalType": "uint256",
          "name": "",
          "type": "uint256"
        }
      ],
      "stateMutability": "view",
      "type": "function"
    },
    {
      "inputs": [],
      "name": "getLockPeriods",
      "outputs": [
        {
          "internalType": "uint256[]",
          "name": "",
          "type": "uint256[]"
        }
      ],
      "stateMutability": "view",
      "type": "function"
    },
    {
      "inputs": [
        {
          "internalType": "uint256",
          "name": "positionId",
          "type": "uint256"
        }
      ],
      "name": "getPositionById",
      "outputs": [
        {
          "components": [
            {
              "internalType": "uint256",
              "name": "positionId",
              "type": "uint256"
            },
            {
              "internalType": "address",
              "name": "walletAddress",
              "type": "address"
            },
            {
              "internalType": "uint256",
              "name": "createdDate",
              "type": "uint256"
            },
            {
              "internalType": "uint256",
              "name": "unlockDate",
              "type": "uint256"
            },
            {
              "internalType": "uint256",
              "name": "percentInterest",
              "type": "uint256"
            },
            {
              "internalType": "uint256",
              "name": "weiStaked",
              "type": "uint256"
            },
            {
              "internalType": "uint256",
              "name": "weiInterest",
              "type": "uint256"
            },
            {
              "internalType": "bool",
              "name": "open",
              "type": "bool"
            }
          ],
          "internalType": "struct Staking.Position",
          "name": "",
          "type": "tuple"
        }
      ],
      "stateMutability": "view",
      "type": "function"
    },
    {
      "inputs": [
        {
          "internalType": "address",
          "name": "walletAddress",
          "type": "address"
        }
      ],
      "name": "getPositionIdsForAddress",
      "outputs": [
        {
          "internalType": "uint256[]",
          "name": "",
          "type": "uint256[]"
        }
      ],
      "stateMutability": "view",
      "type": "function"
    },
    {
      "inputs": [
        {
          "internalType": "uint256",
          "name": "",
          "type": "uint256"
        }
      ],
      "name": "lockPeriods",
      "outputs": [
        {
          "internalType": "uint256",
          "name": "",
          "type": "uint256"
        }
      ],
      "stateMutability": "view",
      "type": "function"
    },
    {
      "inputs": [
        {
          "internalType": "uint256",
          "name": "numDays",
          "type": "uint256"
        },
        {
          "internalType": "uint256",
          "name": "basisPoints",
          "type": "uint256"
        }
      ],
      "name": "modifyLockPeriods",
      "outputs": [],
      "stateMutability": "nonpayable",
      "type": "function"
    },
    {
      "inputs": [],
      "name": "owner",
      "outputs": [
        {
          "internalType": "address",
          "name": "",
          "type": "address"
        }
      ],
      "stateMutability": "view",
      "type": "function"
    },
    {
      "inputs": [
        {
          "internalType": "address",
          "name": "",
          "type": "address"
        },
        {
          "internalType": "uint256",
          "name": "",
          "type": "uint256"
        }
      ],
      "name": "positionIdsByAddress",
      "outputs": [
        {
          "internalType": "uint256",
          "name": "",
          "type": "uint256"
        }
      ],
      "stateMutability": "view",
      "type": "function"
    },
    {
      "inputs": [
        {
          "internalType": "uint256",
          "name": "",
          "type": "uint256"
        }
      ],
      "name": "positions",
      "outputs": [
        {
          "internalType": "uint256",
          "name": "positionId",
          "type": "uint256"
        },
        {
          "internalType": "address",
          "name": "walletAddress",
          "type": "address"
        },
        {
          "internalType": "uint256",
          "name": "createdDate",
          "type": "uint256"
        },
        {
          "internalType": "uint256",
          "name": "unlockDate",
          "type": "uint256"
        },
        {
          "internalType": "uint256",
          "name": "percentInterest",
          "type": "uint256"
        },
        {
          "internalType": "uint256",
          "name": "weiStaked",
          "type": "uint256"
        },
        {
          "internalType": "uint256",
          "name": "weiInterest",
          "type": "uint256"
        },
        {
          "internalType": "bool",
          "name": "open",
          "type": "bool"
        }
      ],
      "stateMutability": "view",
      "type": "function"
    },
    {
      "inputs": [
        {
          "internalType": "uint256",
          "name": "numDays",
          "type": "uint256"
        }
      ],
      "name": "stakeEther",
      "outputs": [],
      "stateMutability": "payable",
      "type": "function"
    },
    {
      "inputs": [
        {
          "internalType": "uint256",
          "name": "",
          "type": "uint256"
        }
      ],
      "name": "tiers",
      "outputs": [
        {
          "internalType": "uint256",
          "name": "",
          "type": "uint256"
        }
      ],
      "stateMutability": "view",
      "type": "function"
    }
  ],
  "bytecode": "0x6080604052336000806101000a81548173ffffffffffffffffffffffffffffffffffffffff021916908373ffffffffffffffffffffffffffffffffffffffff16021790555060006009819055506102bc600c6000601e8152602001908152602001600020819055506103e8600c6000605a8152602001908152602001600020819055506104b0600c600060b4815260200190815260200160002081905550600d601e9080600181540180825580915050600190039060005260206000200160009091909190915055600d605a9080600181540180825580915050600190039060005260206000200160009091909190915055600d60b4908060018154018082558091505060019003906000526020600020016000909190919091505561176d8061012a6000396000f3fe6080604052600436106100dd5760003560e01c80638da5cb5b1161007f578063b0f0475b11610059578063b0f0475b14610301578063b838ec861461032a578063c7c9d05514610367578063e4f9084114610390576100dd565b80638da5cb5b1461026957806399fbab8814610294578063a126d601146102d8576100dd565b806340d98a44116100bb57806340d98a441461018757806341ee13be146101c457806345eae373146101ef5780634c8f2a781461022c576100dd565b8063039af9eb146100e25780630c196a741461011f5780631131c8cd1461015c575b600080fd5b3480156100ee57600080fd5b5061010960048036038101906101049190610f3a565b6103ac565b604051610116919061144b565b60405180910390f35b34801561012b57600080fd5b5061014660048036038101906101419190610f3a565b6103c4565b604051610153919061144b565b60405180910390f35b34801561016857600080fd5b506101716103e1565b60405161017e919061144b565b60405180910390f35b34801561019357600080fd5b506101ae60048036038101906101a99190610ed5565b6103e7565b6040516101bb919061134d565b60405180910390f35b3480156101d057600080fd5b506101d961047e565b6040516101e6919061134d565b60405180910390f35b3480156101fb57600080fd5b5061021660048036038101906102119190610efe565b6104d6565b604051610223919061144b565b60405180910390f35b34801561023857600080fd5b50610253600480360381019061024e9190610f3a565b610507565b604051610260919061144b565b60405180910390f35b34801561027557600080fd5b5061027e61052b565b60405161028b9190611332565b60405180910390f35b3480156102a057600080fd5b506102bb60048036038101906102b69190610f3a565b61054f565b6040516102cf989796959493929190611466565b60405180910390f35b3480156102e457600080fd5b506102ff60048036038101906102fa9190610f3a565b6105c4565b005b34801561030d57600080fd5b5061032860048036038101906103239190610f63565b6108d5565b005b34801561033657600080fd5b50610351600480360381019061034c9190610f3a565b610a70565b60405161035e919061142f565b60405180910390f35b34801561037357600080fd5b5061038e60048036038101906103899190610f63565b610b4b565b005b6103aa60048036038101906103a59190610f3a565b610bf8565b005b600c6020528060005260406000206000915090505481565b6000600c6000838152602001908152602001600020549050919050565b60095481565b6060600b60008373ffffffffffffffffffffffffffffffffffffffff1673ffffffffffffffffffffffffffffffffffffffff16815260200190815260200160002080548060200260200160405190810160405280929190818152602001828054801561047257602002820191906000526020600020905b81548152602001906001019080831161045e575b50505050509050919050565b6060600d8054806020026020016040519081016040528092919081815260200182805480156104cc57602002820191906000526020600020905b8154815260200190600101908083116104b8575b5050505050905090565b600b60205281600052604060002081815481106104f257600080fd5b90600052602060002001600091509150505481565b600d818154811061051757600080fd5b906000526020600020016000915090505481565b60008054906101000a900473ffffffffffffffffffffffffffffffffffffffff1681565b600a6020528060005260406000206000915090508060000154908060010160009054906101000a900473ffffffffffffffffffffffffffffffffffffffff16908060020154908060030154908060040154908060050154908060060154908060070160009054906101000a900460ff16905088565b3373ffffffffffffffffffffffffffffffffffffffff16600a600083815260200190815260200160002060010160009054906101000a900473ffffffffffffffffffffffffffffffffffffffff1673ffffffffffffffffffffffffffffffffffffffff1614610668576040517f08c379a000000000000000000000000000000000000000000000000000000000815260040161065f9061136f565b60405180910390fd5b60011515600a600083815260200190815260200160002060070160009054906101000a900460ff161515146106d2576040517f08c379a00000000000000000000000000000000000000000000000000000000081526004016106c99061138f565b60405180910390fd5b6000600a600083815260200190815260200160002060070160006101000a81548160ff021916908315150217905550600a60008281526020019081526020016000206003015442111561080e576000600a600083815260200190815260200160002060060154600a6000848152602001908152602001600020600501546107599190611539565b905060003373ffffffffffffffffffffffffffffffffffffffff16826040516107819061131d565b60006040518083038185875af1925050503d80600081146107be576040519150601f19603f3d011682016040523d82523d6000602084013e6107c3565b606091505b5050905080610807576040517f08c379a00000000000000000000000000000000000000000000000000000000081526004016107fe906113ef565b60405180910390fd5b50506108d2565b60003373ffffffffffffffffffffffffffffffffffffffff16600a60008481526020019081526020016000206005015460405161084a9061131d565b60006040518083038185875af1925050503d8060008114610887576040519150601f19603f3d011682016040523d82523d6000602084013e61088c565b606091505b50509050806108d0576040517f08c379a00000000000000000000000000000000000000000000000000000000081526004016108c7906113ef565b60405180910390fd5b505b50565b3373ffffffffffffffffffffffffffffffffffffffff1660008054906101000a900473ffffffffffffffffffffffffffffffffffffffff1673ffffffffffffffffffffffffffffffffffffffff1614610963576040517f08c379a000000000000000000000000000000000000000000000000000000000815260040161095a906113af565b60405180910390fd5b600081116109a6576040517f08c379a000000000000000000000000000000000000000000000000000000000815260040161099d906113cf565b60405180910390fd5b80600c6000848152602001908152602001600020819055506000805b600d80549050811015610a335783600d8281548110610a0a577f4e487b7100000000000000000000000000000000000000000000000000000000600052603260045260246000fd5b90600052602060002001541415610a2057600191505b8080610a2b90611662565b9150506109c2565b50600015158115151415610a6b57600d8390806001815401808255809150506001900390600052602060002001600090919091909150555b505050565b610a78610e4e565b600a600083815260200190815260200160002060405180610100016040529081600082015481526020016001820160009054906101000a900473ffffffffffffffffffffffffffffffffffffffff1673ffffffffffffffffffffffffffffffffffffffff1673ffffffffffffffffffffffffffffffffffffffff16815260200160028201548152602001600382015481526020016004820154815260200160058201548152602001600682015481526020016007820160009054906101000a900460ff1615151515815250509050919050565b3373ffffffffffffffffffffffffffffffffffffffff1660008054906101000a900473ffffffffffffffffffffffffffffffffffffffff1673ffffffffffffffffffffffffffffffffffffffff1614610bd9576040517f08c379a0000000000000000000000000000000000000000000000000000000008152600401610bd0906113af565b60405180910390fd5b80600a6000848152602001908152602001600020600301819055505050565b6000600c60008381526020019081526020016000205411610c4e576040517f08c379a0000000000000000000000000000000000000000000000000000000008152600401610c459061140f565b60405180910390fd5b60405180610100016040528060095481526020013373ffffffffffffffffffffffffffffffffffffffff1681526020014281526020016201518083610c9391906115c0565b42610c9e9190611539565b8152602001600c6000848152602001908152602001600020548152602001348152602001610cdf600c60008581526020019081526020016000205434610e2b565b815260200160011515815250600a600060095481526020019081526020016000206000820151816000015560208201518160010160006101000a81548173ffffffffffffffffffffffffffffffffffffffff021916908373ffffffffffffffffffffffffffffffffffffffff16021790555060408201518160020155606082015181600301556080820151816004015560a0820151816005015560c0820151816006015560e08201518160070160006101000a81548160ff021916908315150217905550905050600b60003373ffffffffffffffffffffffffffffffffffffffff1673ffffffffffffffffffffffffffffffffffffffff1681526020019081526020016000206009549080600181540180825580915050600190039060005260206000200160009091909190915055600160096000828254610e219190611539565b9250508190555050565b60006127108284610e3c91906115c0565b610e46919061158f565b905092915050565b60405180610100016040528060008152602001600073ffffffffffffffffffffffffffffffffffffffff16815260200160008152602001600081526020016000815260200160008152602001600081526020016000151581525090565b600081359050610eba81611709565b92915050565b600081359050610ecf81611720565b92915050565b600060208284031215610ee757600080fd5b6000610ef584828501610eab565b91505092915050565b60008060408385031215610f1157600080fd5b6000610f1f85828601610eab565b9250506020610f3085828601610ec0565b9150509250929050565b600060208284031215610f4c57600080fd5b6000610f5a84828501610ec0565b91505092915050565b60008060408385031215610f7657600080fd5b6000610f8485828601610ec0565b9250506020610f9585828601610ec0565b9150509250929050565b6000610fab83836112ff565b60208301905092915050565b610fc08161161a565b82525050565b610fcf8161161a565b82525050565b6000610fe0826114f4565b610fea818561150c565b9350610ff5836114e4565b8060005b8381101561102657815161100d8882610f9f565b9750611018836114ff565b925050600181019050610ff9565b5085935050505092915050565b61103c8161162c565b82525050565b61104b8161162c565b82525050565b600061105e602083611528565b91507f4f6e6c7920496e766573746f72206d617920636c6f736520706f736974696f6e6000830152602082019050919050565b600061109e601c83611528565b91507f5468697320506f736974696f6e20616c726561647920636c6f736564000000006000830152602082019050919050565b60006110de602583611528565b91507f4f6e6c79206f776e6572206d6179206d6f64696679207374616b696e6720706560008301527f72696f64730000000000000000000000000000000000000000000000000000006020830152604082019050919050565b6000611144602983611528565b91507f52617465206f6620696e7465726573742073686f756c64206265206d6f72652060008301527f7468616e207a65726f00000000000000000000000000000000000000000000006020830152604082019050919050565b60006111aa603a83611528565b91507f416464726573733a20756e61626c6520746f2073656e642076616c75652c207260008301527f6563697069656e74206d617920686176652072657665727465640000000000006020830152604082019050919050565b600061121060008361151d565b9150600082019050919050565b600061122a601a83611528565b91507f5468697320736368656d6520646f6573206e6f742065786973740000000000006000830152602082019050919050565b6101008201600082015161127460008501826112ff565b5060208201516112876020850182610fb7565b50604082015161129a60408501826112ff565b5060608201516112ad60608501826112ff565b5060808201516112c060808501826112ff565b5060a08201516112d360a08501826112ff565b5060c08201516112e660c08501826112ff565b5060e08201516112f960e0850182611033565b50505050565b61130881611658565b82525050565b61131781611658565b82525050565b600061132882611203565b9150819050919050565b60006020820190506113476000830184610fc6565b92915050565b600060208201905081810360008301526113678184610fd5565b905092915050565b6000602082019050818103600083015261138881611051565b9050919050565b600060208201905081810360008301526113a881611091565b9050919050565b600060208201905081810360008301526113c8816110d1565b9050919050565b600060208201905081810360008301526113e881611137565b9050919050565b600060208201905081810360008301526114088161119d565b9050919050565b600060208201905081810360008301526114288161121d565b9050919050565b600061010082019050611445600083018461125d565b92915050565b6000602082019050611460600083018461130e565b92915050565b60006101008201905061147c600083018b61130e565b611489602083018a610fc6565b611496604083018961130e565b6114a3606083018861130e565b6114b0608083018761130e565b6114bd60a083018661130e565b6114ca60c083018561130e565b6114d760e0830184611042565b9998505050505050505050565b6000819050602082019050919050565b600081519050919050565b6000602082019050919050565b600082825260208201905092915050565b600081905092915050565b600082825260208201905092915050565b600061154482611658565b915061154f83611658565b9250827fffffffffffffffffffffffffffffffffffffffffffffffffffffffffffffffff03821115611584576115836116ab565b5b828201905092915050565b600061159a82611658565b91506115a583611658565b9250826115b5576115b46116da565b5b828204905092915050565b60006115cb82611658565b91506115d683611658565b9250817fffffffffffffffffffffffffffffffffffffffffffffffffffffffffffffffff048311821515161561160f5761160e6116ab565b5b828202905092915050565b600061162582611638565b9050919050565b60008115159050919050565b600073ffffffffffffffffffffffffffffffffffffffff82169050919050565b6000819050919050565b600061166d82611658565b91507fffffffffffffffffffffffffffffffffffffffffffffffffffffffffffffffff8214156116a05761169f6116ab565b5b600182019050919050565b7f4e487b7100000000000000000000000000000000000000000000000000000000600052601160045260246000fd5b7f4e487b7100000000000000000000000000000000000000000000000000000000600052601260045260246000fd5b6117128161161a565b811461171d57600080fd5b50565b61172981611658565b811461173457600080fd5b5056fea2646970667358221220473d71f1c9ac33130d26daf84fe7a55ec675219996722e5494f8e25f3cf2828264736f6c63430008000033",
  "linkReferences": {},
  "deployedLinkReferences": {}
}